:020000040800F2
:10000000300400208501000837060008B705000805
:1000100035060008F9010008AB0B000800000000DD
:100020000000000000000000000000009907000828
:10003000FB010008000000009D060008850800087C
:100040009F0100089F0100089F0100089F01000810
:100050009F0100089F0100089F0100089F01000800
:100060009F0100089F0100089F0100089F010008F0
:100070009F0100089F0100089F0100089F010008E0
:100080009F0100089F0100089F0100089F010008D0
:100090009F0100089F0100089F0100089F010008C0
:1000A0009F0100089F0100089F0100089F010008B0
:1000B0009F010008E50800089F0100089F01000853
:1000C0009F0100089F0100089F0100089F01000890
:1000D0009F0100089F0100089F0100089F01000880
:1000E0009F0100089F0100089F0100080000000018
:1000F0000000000000000000000000000000000000
:1001000000000000000000009F0100089F0100089F
:100110009F0100089F0100089F0100089F0100083F
:100120009F0100089F0100089F0100089F0100082F
:100130009F0100089F0100089F0100089F0100081F
:100140009F0100089F0100089F0100089F0100080F
:10015000DFF80CD000F03EF800480047D10D000851
:1001600030040020EFF30980704780F3098870475E
:10017000EFF30880704780F30888704740BA7047F3
:10018000C0BA70470648804706480047FEE7FEE7CA
:10019000FEE7FEE7FEE7FEE7FEE7FEE7FEE7FEE737
:1001A000890800085101000830B50B4601460020BF
:1001B0002022012409E021FA02F59D4205D303FA29
:1001C00002F5491B04FA02F52844151EA2F10102AA
:1001D000F1DC30BD064C074D06E0E06840F001035D
:1001E00094E8070098471034AC42F6D3FFF7B4FF09
:1001F0007C1000089C100008FEE77047F0B505462B
:100200001848194C4FF43027854241F6FD763846A0
:1002100013D200F04BF904280ED1206940F00200FF
:1002200020616561206940F040002061384600F09F
:100230003DF9216931402161F0BD00F048F9042801
:10024000FAD1206D40F0020020656565206D40F018
:1002500040002065384600F03AF9216D31402165B3
:10026000F0BD0000FFFF07080020024008490420FD
:10027000CA68D20701D001207047CA68520701D569
:1002800002207047C968C906FBD5032070470000EB
:100290000020024008490420CA6CD20701D0012086
:1002A0007047CA6C520701D502207047C96CC90655
:1002B000FBD5032070470000002002402DE9F041EB
:1002C0000C4D0B4C6F1E2E682046314600F05AF83C
:1002D000042802D00120BDE8F0812068B04201D09E
:1002E0000220F8E7241D2D1DBC42ECD30020F2E7CC
:1002F000008000080000080870B5094CF02004EBED
:10030000C02508E02046FFF779FF042801D001202E
:1003100070BD04F50064A542F4D8002070BD000053
:10032000008000082DE9F04104464FF400580E46C5
:10033000404600F0DDF81149114D41F6FE778C4240
:100340000ED204280AD1286940F0010028612680D5
:10035000404600F0ABF8296939402961BDE8F081D9
:100360000428FBD1286D40F0010028652680404616
:1003700000F0ADF8296D39402965EFE7FFFF070868
:10038000002002402DE9F847044600203E4A41F68D
:10039000FE750090A61C0F0CA81CDFF8F0901FFA49
:1003A00081F894421ED2824600F080F8042817D1CA
:1003B000D9F8101041F00101C9F81010A4F800801C
:1003C0005446504600F094F8042804D10096378033
:1003D000204600F08DF8D9F810202A40C9F81020E6
:1003E000BDE8F88728498246491C8C4233D100F089
:1003F0005DF80428484608D001692940016150464B
:1004000000F065F8042810D01FE0006940F00101F9
:10041000C9F81010A4F80080504600F047F8D9F849
:1004200010002840C9F81000E9E7D9F850004C4600
:1004300040F00100C9F8500000963780504600F0A7
:1004400046F8216D29402165CAE7D9F850202A4095
:10045000C9F85020C4E700F03AF80428C0D1D9F810
:10046000501041F00101C9F85010A4F80080544622
:10047000504600F02CF80428E7D10096378020463B
:1004800000F025F8E1E70000FDFF0708002002402A
:10049000044803494160044A426041644264704731
:1004A0002301674500200240AB89EFCD00B503462C
:1004B000FFF7DCFE02E0FFF7D9FE5B1E012803D048
:1004C000002B00D1052000BD002BF4D1FAE700B5C8
:1004D0000346FFF7DFFE02E0FFF7DCFE5B1E0128AC
:1004E00003D0002B00D1052000BD002BF4D1FAE78A
:1004F00000B50346FFF7BAFE02E0FFF7B7FE5B1E4A
:10050000012803D0002B00D1052000BD002BF4D121
:10051000FAE7F0B5CC78002204F00F03E40601D529
:100520008C7823430C784FF00F0C14F0FF0F4FF032
:10053000010E1BD005680E880EFA02F42640A64272
:1005400010D196000CFA06F725EA070703FA06F51C
:10055000CE783D43282E02D0482E02D002E04461DE
:1005600000E00461521C082AE5D305600A88FF2ACE
:100570001CD94468002202F108060EFA06F50E881E
:100580002E40AE420ED196000CFA06F7BC4303FA99
:1005900006F7CE783C43282E00D14561CE78482E10
:1005A00000D10561521C082AE5D34460F0BD4161C9
:1005B000704701617047FEE738B50168064A11408F
:1005C000B1F1005F06D1416800910C460068FFF769
:1005D000D2FDA047012038BD0000FE2F38B5012113
:1005E000102000F069F810208DF8030003208DF82A
:1005F00002000820054CADF8000069462046FFF7D0
:1006000088FF08212046FFF7D4FF38BD00100140C5
:1006100010B5074C08212046FFF7C9FF012000F064
:10062000ABFB2046BDE810400821FFF7C2BF000029
:1006300000100140FEE7704730B50F23C278017803
:100640000125F2B1144A126801F1E02102F4E062DE
:10065000C2F5E062120AC2F10404D3404278A2401B
:1006600084781C401443220181F80024007800F0B3
:100670001F018D404009800000F1E020C0F80051CA
:1006800030BD01F01F0085404809800000F1E020E6
:10069000C0F8805130BD00000CED00E07047000054
:1006A000044A0029D16901D0014300E08143D161AE
:1006B0007047000000100240044A0029916901D0EF
:1006C000014300E081439161704700000010024047
:1006D000F0B52C4B59682C4A11F00C014FF00F0665
:1006E00004D02A4C042903D0082903D0026028E052
:1006F000046026E059685A6806EA914102F48032A3
:100700000D2901D0891C00E00621BAB1DA6A12F481
:10071000803FDA6A02F00F0202F101020AD0DD6ABC
:10072000C5F30317DD6A7F1CB4FBF7F4C5F303259B
:10073000AD1C6C43B4FBF2F24A43D7E7144A514371
:1007400001605968134A06EA1111545C0168E140DE
:1007500041605C68072505EA1424145D21FA04F45D
:1007600084605C6805EAD424125DD140C1605A6897
:10077000032303EA9232074B1B1F9A5CB1FBF2F191
:100780000161F0BD0010024000127A0040787D0146
:1007900000093D0018000020704700000CB5002241
:1007A0002E4800920192016841F4803101604FF4BB
:1007B000A063016801F4003101910099491C009186
:1007C000019911B900999942F3D10168890342D581
:1007D0000121019122490A6842F010020A600A6868
:1007E00022F003020A600A6842F002020A604168CD
:1007F000416041684160416841F480614160C16A83
:10080000184A1140C162C16A174A1143C1620168A6
:1008100041F08061016001680901FCD5416821F463
:100820007C114160416841F4E8114160016841F088
:100830008071016001688901FCD5416821F00301E4
:100840004160416841F0020141604168C1F38101AA
:100850000229FAD10CBD01920CBD0000001002402B
:100860000020024000F0FEFF440601004FF0E021AE
:100870000428086903D020F004000861704740F0A4
:100880000400FAE770470000124810B5016841F013
:10089000010101604168104A1140416001680F4A3E
:1008A00011400160016821F480210160416821F458
:1008B000FE014160016821F0A05101604FF47F0109
:1008C00081600021C162FFF769FF05494FF00060B8
:1008D000086010BD001002400000FFF0FFFFF6FEB0
:1008E00008ED00E010B5084C0121204600F04BF85F
:1008F000002807D00121204600F038F8BDE810405C
:10090000FFF786BE10BD0000000400407FB50D4615
:10091000044601210220FFF7C3FEADF80440002089
:10092000ADF80050104CADF80600ADF80200694675
:10093000204600F03DF801221146204600F02FF835
:100940001D208DF80C0001218DF80D1003228DF86B
:100950000E208DF80F1003A8FFF76EFE0121204630
:1009600000F007F87FBD000000040040C943018289
:1009700070470029018802D041F0010101E021F017
:1009800001010180704702460020138A92890B42C0
:1009900002EA010202D0002A00D001207047002A9A
:1009A000828901D00A4300E08A43828170470000B7
:1009B00030B502881B4C1C4DA0420DD0A8420BD074
:1009C000B0F1804F08D0194B984205D0184B98428F
:1009D00002D0184B984203D122F070034A881A4380
:1009E000154B984206D0154B984203D022F4407321
:1009F000CA881A4302808A8882850A880285A042B2
:100A00000AD0A84208D00E4A904205D00D4A904222
:100A100002D00D4A904201D1097A018601218182DA
:100A200030BD0000002C01400034014000040040B3
:100A300000080040000C004000100040001400407E
:100A400000400140004401400048014000298189E4
:100A500002D041F4005101E021F40051818170473E
:100A60001FB500F099F84FF4E13000900020ADF888
:100A70000600ADF80400ADF80800ADF80C000C203D
:100A8000064CADF80A006946204600F02FF8012117
:100A90002046FFF7DBFF00F003F81FBD00380140E0
:100AA00038B518208DF803004FF40070ADF8000041
:100AB0000320094C8DF8020069462046FFF729FD06
:100AC00004218DF803100902ADF800106946204694
:100AD000FFF71FFD38BD000000080140024600205E
:100AE00012880A4200D001207047000030B5044649
:100AF000008A85B00D464CF6FF710840E988014335
:100B00002182A0894EF6F3110840A9882A89114351
:100B10006A8902431143A181A08A4FF6FF41084030
:100B2000A9890143A1826846FFF7D2FD1948844292
:100B300001D1039800E00298A189090400EBC001EB
:100B400001EB0010296801D5490000E08900B0FBE5
:100B5000F1F06422B0FBF2F109010B096FF0180506
:100B60006B4300EB8300A3891D044FF0320306D5CD
:100B700003EBC000B0FBF2F000F0070005E003EB70
:100B80000010B0FBF2F000F00F000843208105B028
:100B900030BD000000380140012144F20400FFF79D
:100BA0008BBDC1F3080181807047FEE70FB4054B90
:100BB00010B503A9044A029800F018F810BC5DF8BB
:100BC00014FB0000AD0D00082C00002002E008C856
:100BD000121F08C1002AFAD170477047002001E0B7
:100BE00001C1121F002AFBD1704700002DE9FF4F01
:100BF00089B09B460446002506E025280BD05A46BE
:100C00000B999047641C6D1C20780028F5D10DB01D
:100C10002846BDE8F08F0027B8460122474900E08A
:100C2000074314F8013F203B02FA03F00842F7D1D2
:100C300020782E2819D114F8010F47F004072A282C
:100C40000ED06FF02F022078A0F1300109290CD8C6
:100C500008EB880102EB410100EB0108641CF2E79C
:100C60000A98641C50F8048B0A9020780028CED093
:100C7000642808D0692806D075281ED05A460B99DA
:100C800090476D1C58E00A994FF00A0901C90A9172
:100C9000002802DA40422D2102E0390504D52B213B
:100CA0008DF82010012103E0F90704D02021F7E797
:100CB0008A4608AE0DE00021FAE70A994FF00A09CA
:100CC00001C90A91F7E74946FFF76EFA303106F895
:100CD000011D0028F7D1ADEB060000F120097807CF
:100CE00001D44FF00108C84502DDA8EB090000E07F
:100CF00000208046002706E008A85A46C05D0B99F0
:100D000090476D1C7F1C5745F6DB04E030205A46A7
:100D10000B9990476D1CB8F10001A8F10108F5DCB2
:100D200005E016F8010B5A460B9990476D1CB9F176
:100D30000001A9F10109F4DC641C65E70928010040
:100D400010B50420FFF792FD084809490068B0FB80
:100D5000F1F00849C0B200EB40020870C2EBC010CD
:100D60004FF6FF7202EAC000488010BD000000206C
:100D700040420F00280000200B49097848434FF0FB
:100D8000E021486100238B61086940F0010008619F
:100D90000869C20701D0C003FAD5086920F0010034
:100DA00008618B61704700002800002070B5074D76
:100DB0000446C1B22846FFF7F4FE80212846FFF71B
:100DC0008DFE0028F9D0204670BD0000003801409B
:100DD00070B5FFF759FDFFF7B3FFFFF7FFFB41F6D3
:100DE0001F4141F28730FFF791FDFFF739FE26A042
:100DF000FFF7DCFE2548FFF7D9FE2548FFF7D6FEB2
:100E00002448FFF7D3FE2448FFF7D0FE1F48FFF722
:100E1000CDFE22A0FFF7CAFE214C22A0258829463C
:100E2000FFF7C4FE012D0CD01F4C2168491C27D0B0
:100E30001EA0FFF7BBFE72B62046FFF7BDFB0020E9
:100E400070BDFFF725FB02E01FA0FFF7AFFEFFF725
:100E500053FA0028F8D102E020A0FFF7A7FEFFF721
:100E60002DFA0028F8D12046FFF7C8F90428FAD156
:100E700000212046FFF756FA0428F9D100F044F883
:100E800019A0FFF793FEDAE70C0000002810000815
:100E90002C0F0008800F0008D40F00080D0A000076
:100EA0000040000825640A00008000080A2D3E4A20
:100EB000756D7020746F20757365722070726F6726
:100EC00072616D21210A00004572617365204150F5
:100ED0005032206572726F720A0000004941502042
:100EE0006572726F720A00000A2D3E5468652070A8
:100EF000726F6772616D20697320696E65666669DD
:100F00006361637921210A00012080F31388054879
:100F10000168054A01F4E06111430160BFF3408FAD
:100F2000FEE700000CED00E00400FA050D0A2A2A95
:100F30002A2A2A2A2A2A2A2A2A2A2A2A2A2A2A2A11
:100F40002A2A2A2A2A2A2020426F6F744C6F616451
:100F5000657220666F72204543552D522D4D33200A
:100F600020202020202A2A2A2A2A2A2A2A2A2A2A13
:100F70002A2A2A2A2A2A2A2A2A2A2A2A2A0000004F
:100F80000D0A2A2A2A2A2A2A2A2A2A2A2A2A2A2AFE
:100F90002A2A2A2A2A2A2A2A2A2A2A2A2A202044AB
:100FA000657369676E2062792059754E656E67209A
:100FB0004045435520202A2A2A2A2A2A2A2A2A2A30
:100FC0002A2A2A2A2A2A2A2A2A2A2A2A2A2A2A2A81
:100FD0002A0000000D0A2A2A2A2A2A2A2A2A2A2A2C
:100FE0002A2A2A2A2A2A2A2A2A2A2A2A2A2A2A2A61
:100FF0002A2A2A202020323031372E303320202058
:1010000020202020202020202A2A2A2A2A2A2A2A90
:101010002A2A2A2A2A2A2A2A2A2A2A2A2A2A2A2A30
:101020002A2A2A2A2A0000000D0A2A2A2A2A2A2ADB
:101030002A2A2A2A2A2A2A2A2A2A2A2A2A2A2A2A10
:101040002A2A2A2A2A2A2A2A2A2A2A2A2A2A2A2A00
:101050002A2A2A2A2A2A2A2A2A2A2A2A2A2A2A2AF0
:101060002A2A2A2A2A2A2A2A2A2A2A2A2A2A2A2AE0
:101070002A2A2A2A2A2A2A2A2A0000009C10000842
:101080000000002030000000CC0B0008CC1000084D
:101090003000002000040000DC0B000800A24A041D
:1010A0000000000000000000010203040607080918
:1010B0000204060800000000010203040102030408
:0C10C00006070809000000000000000006
:04000005080001519D
:00000001FF
